{
  "contractName": "ATRecipientHook",
  "abi": [
    {
      "inputs": [
        {
          "internalType": "address",
          "name": "token",
          "type": "address"
        }
      ],
      "stateMutability": "nonpayable",
      "type": "constructor"
    },
    {
      "anonymous": false,
      "inputs": [
        {
          "indexed": false,
          "internalType": "address",
          "name": "operator",
          "type": "address"
        },
        {
          "indexed": false,
          "internalType": "address",
          "name": "from",
          "type": "address"
        },
        {
          "indexed": false,
          "internalType": "address",
          "name": "to",
          "type": "address"
        },
        {
          "indexed": false,
          "internalType": "uint256",
          "name": "amount",
          "type": "uint256"
        },
        {
          "indexed": false,
          "internalType": "bytes",
          "name": "userData",
          "type": "bytes"
        },
        {
          "indexed": false,
          "internalType": "bytes",
          "name": "operatorData",
          "type": "bytes"
        }
      ],
      "name": "DoneStuff",
      "type": "event"
    },
    {
      "inputs": [
        {
          "internalType": "address",
          "name": "operator",
          "type": "address"
        },
        {
          "internalType": "address",
          "name": "from",
          "type": "address"
        },
        {
          "internalType": "address",
          "name": "to",
          "type": "address"
        },
        {
          "internalType": "uint256",
          "name": "amount",
          "type": "uint256"
        },
        {
          "internalType": "bytes",
          "name": "userData",
          "type": "bytes"
        },
        {
          "internalType": "bytes",
          "name": "operatorData",
          "type": "bytes"
        }
      ],
      "name": "tokensReceived",
      "outputs": [],
      "stateMutability": "nonpayable",
      "type": "function"
    }
  ],
  "bytecode": "0x6080604052731820a4b7618bde71dce8cdc73aab6c95905fad246000806101000a81548173ffffffffffffffffffffffffffffffffffffffff021916908373ffffffffffffffffffffffffffffffffffffffff16021790555034801561006457600080fd5b5060405161073e38038061073e833981810160405281019061008691906101df565b80600160006101000a81548173ffffffffffffffffffffffffffffffffffffffff021916908373ffffffffffffffffffffffffffffffffffffffff16021790555060008054906101000a900473ffffffffffffffffffffffffffffffffffffffff1673ffffffffffffffffffffffffffffffffffffffff166329965a1d307fb281fc8c12954d22544db45de3159a39272895b169a852b314f9cc762e44c53b306040518463ffffffff1660e01b815260040161014493929190610234565b600060405180830381600087803b15801561015e57600080fd5b505af1158015610172573d6000803e3d6000fd5b505050505061026b565b600080fd5b600073ffffffffffffffffffffffffffffffffffffffff82169050919050565b60006101ac82610181565b9050919050565b6101bc816101a1565b81146101c757600080fd5b50565b6000815190506101d9816101b3565b92915050565b6000602082840312156101f5576101f461017c565b5b6000610203848285016101ca565b91505092915050565b610215816101a1565b82525050565b6000819050919050565b61022e8161021b565b82525050565b6000606082019050610249600083018661020c565b6102566020830185610225565b610263604083018461020c565b949350505050565b6104c48061027a6000396000f3fe608060405234801561001057600080fd5b506004361061002a5760003560e01c806223de291461002f575b600080fd5b6100496004803603810190610044919061022d565b61004b565b005b600160009054906101000a900473ffffffffffffffffffffffffffffffffffffffff1673ffffffffffffffffffffffffffffffffffffffff163373ffffffffffffffffffffffffffffffffffffffff16146100db576040517f08c379a00000000000000000000000000000000000000000000000000000000081526004016100d29061037f565b60405180910390fd5b7fa0a5a35754b3519ae614f00422ac62a6bc4608ccb722963aab00cb48c588ad72888888888888888860405161011898979695949392919061041b565b60405180910390a15050505050505050565b600080fd5b600080fd5b600073ffffffffffffffffffffffffffffffffffffffff82169050919050565b600061015f82610134565b9050919050565b61016f81610154565b811461017a57600080fd5b50565b60008135905061018c81610166565b92915050565b6000819050919050565b6101a581610192565b81146101b057600080fd5b50565b6000813590506101c28161019c565b92915050565b600080fd5b600080fd5b600080fd5b60008083601f8401126101ed576101ec6101c8565b5b8235905067ffffffffffffffff81111561020a576102096101cd565b5b602083019150836001820283011115610226576102256101d2565b5b9250929050565b60008060008060008060008060c0898b03121561024d5761024c61012a565b5b600061025b8b828c0161017d565b985050602061026c8b828c0161017d565b975050604061027d8b828c0161017d565b965050606061028e8b828c016101b3565b955050608089013567ffffffffffffffff8111156102af576102ae61012f565b5b6102bb8b828c016101d7565b945094505060a089013567ffffffffffffffff8111156102de576102dd61012f565b5b6102ea8b828c016101d7565b92509250509295985092959890939650565b600082825260208201905092915050565b7f53696d706c65373737526563697069656e743a20496e76616c696420746f6b6560008201527f6e00000000000000000000000000000000000000000000000000000000000000602082015250565b60006103696021836102fc565b91506103748261030d565b604082019050919050565b600060208201905081810360008301526103988161035c565b9050919050565b6103a881610154565b82525050565b6103b781610192565b82525050565b600082825260208201905092915050565b82818337600083830152505050565b6000601f19601f8301169050919050565b60006103fa83856103bd565b93506104078385846103ce565b610410836103dd565b840190509392505050565b600060c082019050610430600083018b61039f565b61043d602083018a61039f565b61044a604083018961039f565b61045760608301886103ae565b818103608083015261046a8186886103ee565b905081810360a083015261047f8184866103ee565b9050999850505050505050505056fea264697066735822122013bb4d825c50380da684fe0e541522f2ccec017e45489ffac107bdb13fd6f7d964736f6c634300080d0033",
  "immutableReferences": {},
  "source": "// SPDX-License-Identifier: GPL-3.0\npragma solidity ^0.8.0;\n\nimport \"@openzeppelin/contracts/token/ERC777/IERC777.sol\";\nimport \"@openzeppelin/contracts/utils/introspection/IERC1820Registry.sol\";\nimport \"@openzeppelin/contracts/token/ERC777/IERC777Recipient.sol\";\n\ncontract ATRecipientHook is IERC777Recipient{\n     IERC1820Registry private _erc1820 = IERC1820Registry(0x1820a4B7618BdE71Dce8cdc73aAB6C95905faD24);\n    bytes32 constant private TOKENS_RECIPIENT_INTERFACE_HASH = keccak256(\"ERC777TokensRecipient\");\n\n    IERC777 private _token;\n\n    event DoneStuff(address operator, address from, address to, uint256 amount, bytes userData, bytes operatorData);\n\n    constructor (address token)  {\n        _token = IERC777(token);\n\n        _erc1820.setInterfaceImplementer(address(this), TOKENS_RECIPIENT_INTERFACE_HASH, address(this));\n    }\n\n    function tokensReceived(\n        address operator,\n        address from,\n        address to,\n        uint256 amount,\n        bytes calldata userData,\n        bytes calldata operatorData\n    ) external {\n        require(msg.sender == address(_token), \"Simple777Recipient: Invalid token\");\n\n        // do stuff\n        emit DoneStuff(operator, from, to, amount, userData, operatorData);\n    }\n}\n",
  "sourcePath": "/home/asem/blockchain_training/ERC777-AirDrop/contracts/ATRecipientHook.sol",
  "compiler": {
    "name": "solc",
    "version": "0.8.13+commit.abaa5c0e.Emscripten.clang"
  },
  "schemaVersion": "3.4.7",
  "updatedAt": "2022-06-10T20:02:36.354Z",
  "networkType": "ethereum",
  "devdoc": {
    "kind": "dev",
    "methods": {
      "tokensReceived(address,address,address,uint256,bytes,bytes)": {
        "details": "Called by an {IERC777} token contract whenever tokens are being moved or created into a registered account (`to`). The type of operation is conveyed by `from` being the zero address or not. This call occurs _after_ the token contract's state is updated, so {IERC777-balanceOf}, etc., can be used to query the post-operation state. This function may revert to prevent the operation from being executed."
      }
    },
    "version": 1
  },
  "userdoc": {
    "kind": "user",
    "methods": {},
    "version": 1
  }
}