{
  "contractName": "ATSenderHook",
  "abi": [
    {
      "anonymous": false,
      "inputs": [
        {
          "indexed": false,
          "internalType": "address",
          "name": "operator",
          "type": "address"
        },
        {
          "indexed": false,
          "internalType": "address",
          "name": "from",
          "type": "address"
        },
        {
          "indexed": false,
          "internalType": "address",
          "name": "to",
          "type": "address"
        },
        {
          "indexed": false,
          "internalType": "uint256",
          "name": "amount",
          "type": "uint256"
        },
        {
          "indexed": false,
          "internalType": "bytes",
          "name": "userData",
          "type": "bytes"
        },
        {
          "indexed": false,
          "internalType": "bytes",
          "name": "operatorData",
          "type": "bytes"
        }
      ],
      "name": "DoneStuff",
      "type": "event"
    },
    {
      "inputs": [],
      "name": "TOKENS_SENDER_INTERFACE_HASH",
      "outputs": [
        {
          "internalType": "bytes32",
          "name": "",
          "type": "bytes32"
        }
      ],
      "stateMutability": "view",
      "type": "function",
      "constant": true
    },
    {
      "inputs": [
        {
          "internalType": "bytes32",
          "name": "interfaceHash",
          "type": "bytes32"
        },
        {
          "internalType": "address",
          "name": "account",
          "type": "address"
        }
      ],
      "name": "canImplementInterfaceForAddress",
      "outputs": [
        {
          "internalType": "bytes32",
          "name": "",
          "type": "bytes32"
        }
      ],
      "stateMutability": "view",
      "type": "function",
      "constant": true
    },
    {
      "inputs": [
        {
          "internalType": "address",
          "name": "account",
          "type": "address"
        }
      ],
      "name": "senderFor",
      "outputs": [],
      "stateMutability": "nonpayable",
      "type": "function"
    },
    {
      "inputs": [
        {
          "internalType": "address",
          "name": "operator",
          "type": "address"
        },
        {
          "internalType": "address",
          "name": "from",
          "type": "address"
        },
        {
          "internalType": "address",
          "name": "to",
          "type": "address"
        },
        {
          "internalType": "uint256",
          "name": "amount",
          "type": "uint256"
        },
        {
          "internalType": "bytes",
          "name": "userData",
          "type": "bytes"
        },
        {
          "internalType": "bytes",
          "name": "operatorData",
          "type": "bytes"
        }
      ],
      "name": "tokensToSend",
      "outputs": [],
      "stateMutability": "nonpayable",
      "type": "function"
    }
  ],
  "bytecode": "0x608060405234801561001057600080fd5b5061063d806100206000396000f3fe608060405234801561001057600080fd5b506004361061004c5760003560e01c8063249cb3fa14610051578063669b05321461008157806375ab97821461009f578063d2de6474146100bb575b600080fd5b61006b60048036038101906100669190610317565b6100d7565b6040516100789190610366565b60405180910390f35b61008961016d565b6040516100969190610366565b60405180910390f35b6100b960048036038101906100b4919061041c565b610191565b005b6100d560048036038101906100d091906104eb565b6101e0565b005b600080600084815260200190815260200160002060008373ffffffffffffffffffffffffffffffffffffffff1673ffffffffffffffffffffffffffffffffffffffff16815260200190815260200160002060009054906101000a900460ff16610143576000801b610165565b7fa2ef4600d742022d532d4747cb3547474667d6f13804902513b2ec01c848f4b45b905092915050565b7f29ddb589b1fb5fc7cf394961c1adf5f8c6454761adf795e67fe149f658abe89581565b7fa0a5a35754b3519ae614f00422ac62a6bc4608ccb722963aab00cb48c588ad7288888888888888886040516101ce989796959493929190610594565b60405180910390a15050505050505050565b61020a7f29ddb589b1fb5fc7cf394961c1adf5f8c6454761adf795e67fe149f658abe8958261020d565b50565b600160008084815260200190815260200160002060008373ffffffffffffffffffffffffffffffffffffffff1673ffffffffffffffffffffffffffffffffffffffff16815260200190815260200160002060006101000a81548160ff0219169083151502179055505050565b600080fd5b600080fd5b6000819050919050565b61029681610283565b81146102a157600080fd5b50565b6000813590506102b38161028d565b92915050565b600073ffffffffffffffffffffffffffffffffffffffff82169050919050565b60006102e4826102b9565b9050919050565b6102f4816102d9565b81146102ff57600080fd5b50565b600081359050610311816102eb565b92915050565b6000806040838503121561032e5761032d610279565b5b600061033c858286016102a4565b925050602061034d85828601610302565b9150509250929050565b61036081610283565b82525050565b600060208201905061037b6000830184610357565b92915050565b6000819050919050565b61039481610381565b811461039f57600080fd5b50565b6000813590506103b18161038b565b92915050565b600080fd5b600080fd5b600080fd5b60008083601f8401126103dc576103db6103b7565b5b8235905067ffffffffffffffff8111156103f9576103f86103bc565b5b602083019150836001820283011115610415576104146103c1565b5b9250929050565b60008060008060008060008060c0898b03121561043c5761043b610279565b5b600061044a8b828c01610302565b985050602061045b8b828c01610302565b975050604061046c8b828c01610302565b965050606061047d8b828c016103a2565b955050608089013567ffffffffffffffff81111561049e5761049d61027e565b5b6104aa8b828c016103c6565b945094505060a089013567ffffffffffffffff8111156104cd576104cc61027e565b5b6104d98b828c016103c6565b92509250509295985092959890939650565b60006020828403121561050157610500610279565b5b600061050f84828501610302565b91505092915050565b610521816102d9565b82525050565b61053081610381565b82525050565b600082825260208201905092915050565b82818337600083830152505050565b6000601f19601f8301169050919050565b60006105738385610536565b9350610580838584610547565b61058983610556565b840190509392505050565b600060c0820190506105a9600083018b610518565b6105b6602083018a610518565b6105c36040830189610518565b6105d06060830188610527565b81810360808301526105e3818688610567565b905081810360a08301526105f8818486610567565b9050999850505050505050505056fea264697066735822122000ba972508d430f3d0350bc8693a3ba36051d334616d3f63c23d04cfc83ea96a64736f6c634300080d0033",
  "immutableReferences": {},
  "source": "// SPDX-License-Identifier: GPL-3.0\npragma solidity ^0.8.0;\nimport \"@openzeppelin/contracts/token/ERC777/IERC777Sender.sol\";\nimport \"@openzeppelin/contracts/utils/introspection/ERC1820Implementer.sol\";\n\n\ncontract ATSenderHook is IERC777Sender, ERC1820Implementer{\n    // keccak256(\"ERC777TokensSender\")\n  bytes32 constant public TOKENS_SENDER_INTERFACE_HASH = keccak256(\"ERC777TokensSender\");\n\n  event DoneStuff(address operator, address from, address to, uint256 amount, bytes userData, bytes operatorData);\n\n  function senderFor(address account) public {\n        _registerInterfaceForAddress(TOKENS_SENDER_INTERFACE_HASH, account);\n    }\n\n    function tokensToSend(\n        address operator,\n        address from,\n        address to,\n        uint256 amount,\n        bytes calldata userData,\n        bytes calldata operatorData\n    ) external {\n\n        // do stuff\n        emit DoneStuff(operator, from, to, amount, userData, operatorData);\n    }\n}",
  "sourcePath": "/home/asem/Desktop/Internship/ERC777/contracts/ATSenderHook.sol",
  "compiler": {
    "name": "solc",
    "version": "0.8.13+commit.abaa5c0e.Emscripten.clang"
  },
  "schemaVersion": "3.4.10",
  "updatedAt": "2022-11-08T18:16:51.163Z",
  "networkType": "ethereum",
  "devdoc": {
    "kind": "dev",
    "methods": {
      "canImplementInterfaceForAddress(bytes32,address)": {
        "details": "See {IERC1820Implementer-canImplementInterfaceForAddress}."
      },
      "tokensToSend(address,address,address,uint256,bytes,bytes)": {
        "details": "Called by an {IERC777} token contract whenever a registered holder's (`from`) tokens are about to be moved or destroyed. The type of operation is conveyed by `to` being the zero address or not. This call occurs _before_ the token contract's state is updated, so {IERC777-balanceOf}, etc., can be used to query the pre-operation state. This function may revert to prevent the operation from being executed."
      }
    },
    "version": 1
  },
  "userdoc": {
    "kind": "user",
    "methods": {},
    "version": 1
  }
}