{
  "contractName": "BulkSendOperator",
  "abi": [
    {
      "inputs": [
        {
          "internalType": "contract IERC777",
          "name": "_token",
          "type": "address"
        },
        {
          "internalType": "address[]",
          "name": "_recipients",
          "type": "address[]"
        },
        {
          "internalType": "uint256",
          "name": "_amount",
          "type": "uint256"
        },
        {
          "internalType": "bytes",
          "name": "_data",
          "type": "bytes"
        }
      ],
      "name": "send",
      "outputs": [],
      "stateMutability": "nonpayable",
      "type": "function"
    },
    {
      "inputs": [
        {
          "internalType": "contract IERC777",
          "name": "_token",
          "type": "address"
        },
        {
          "internalType": "address[]",
          "name": "_recipients",
          "type": "address[]"
        },
        {
          "internalType": "uint256[]",
          "name": "_amounts",
          "type": "uint256[]"
        },
        {
          "internalType": "bytes",
          "name": "_data",
          "type": "bytes"
        }
      ],
      "name": "sendAmounts",
      "outputs": [],
      "stateMutability": "nonpayable",
      "type": "function"
    }
  ],
  "bytecode": "0x608060405234801561001057600080fd5b50610907806100206000396000f3fe608060405234801561001057600080fd5b50600436106100365760003560e01c8063021ebbde1461003b57806314d90eb014610057575b600080fd5b610055600480360381019061005091906104e3565b610073565b005b610071600480360381019061006c9190610645565b610124565b005b60005b835181101561011d578473ffffffffffffffffffffffffffffffffffffffff166362ad1b83338684815181106100af576100ae610700565b5b602002602001015186866040518563ffffffff1660e01b81526004016100d894939291906107fb565b600060405180830381600087803b1580156100f257600080fd5b505af1158015610106573d6000803e3d6000fd5b50505050808061011590610889565b915050610076565b5050505050565b60005b83518110156101e8578473ffffffffffffffffffffffffffffffffffffffff166362ad1b83338684815181106101605761015f610700565b5b602002602001015186858151811061017b5761017a610700565b5b6020026020010151866040518563ffffffff1660e01b81526004016101a394939291906107fb565b600060405180830381600087803b1580156101bd57600080fd5b505af11580156101d1573d6000803e3d6000fd5b5050505080806101e090610889565b915050610127565b5050505050565b6000604051905090565b600080fd5b600080fd5b600073ffffffffffffffffffffffffffffffffffffffff82169050919050565b600061022e82610203565b9050919050565b600061024082610223565b9050919050565b61025081610235565b811461025b57600080fd5b50565b60008135905061026d81610247565b92915050565b600080fd5b6000601f19601f8301169050919050565b7f4e487b7100000000000000000000000000000000000000000000000000000000600052604160045260246000fd5b6102c182610278565b810181811067ffffffffffffffff821117156102e0576102df610289565b5b80604052505050565b60006102f36101ef565b90506102ff82826102b8565b919050565b600067ffffffffffffffff82111561031f5761031e610289565b5b602082029050602081019050919050565b600080fd5b61033e81610223565b811461034957600080fd5b50565b60008135905061035b81610335565b92915050565b600061037461036f84610304565b6102e9565b9050808382526020820190506020840283018581111561039757610396610330565b5b835b818110156103c057806103ac888261034c565b845260208401935050602081019050610399565b5050509392505050565b600082601f8301126103df576103de610273565b5b81356103ef848260208601610361565b91505092915050565b6000819050919050565b61040b816103f8565b811461041657600080fd5b50565b60008135905061042881610402565b92915050565b600080fd5b600067ffffffffffffffff82111561044e5761044d610289565b5b61045782610278565b9050602081019050919050565b82818337600083830152505050565b600061048661048184610433565b6102e9565b9050828152602081018484840111156104a2576104a161042e565b5b6104ad848285610464565b509392505050565b600082601f8301126104ca576104c9610273565b5b81356104da848260208601610473565b91505092915050565b600080600080608085870312156104fd576104fc6101f9565b5b600061050b8782880161025e565b945050602085013567ffffffffffffffff81111561052c5761052b6101fe565b5b610538878288016103ca565b935050604061054987828801610419565b925050606085013567ffffffffffffffff81111561056a576105696101fe565b5b610576878288016104b5565b91505092959194509250565b600067ffffffffffffffff82111561059d5761059c610289565b5b602082029050602081019050919050565b60006105c16105bc84610582565b6102e9565b905080838252602082019050602084028301858111156105e4576105e3610330565b5b835b8181101561060d57806105f98882610419565b8452602084019350506020810190506105e6565b5050509392505050565b600082601f83011261062c5761062b610273565b5b813561063c8482602086016105ae565b91505092915050565b6000806000806080858703121561065f5761065e6101f9565b5b600061066d8782880161025e565b945050602085013567ffffffffffffffff81111561068e5761068d6101fe565b5b61069a878288016103ca565b935050604085013567ffffffffffffffff8111156106bb576106ba6101fe565b5b6106c787828801610617565b925050606085013567ffffffffffffffff8111156106e8576106e76101fe565b5b6106f4878288016104b5565b91505092959194509250565b7f4e487b7100000000000000000000000000000000000000000000000000000000600052603260045260246000fd5b61073881610223565b82525050565b610747816103f8565b82525050565b600081519050919050565b600082825260208201905092915050565b60005b8381101561078757808201518184015260208101905061076c565b83811115610796576000848401525b50505050565b60006107a78261074d565b6107b18185610758565b93506107c1818560208601610769565b6107ca81610278565b840191505092915050565b50565b60006107e5600083610758565b91506107f0826107d5565b600082019050919050565b600060a082019050610810600083018761072f565b61081d602083018661072f565b61082a604083018561073e565b818103606083015261083c818461079c565b9050818103608083015261084f816107d8565b905095945050505050565b7f4e487b7100000000000000000000000000000000000000000000000000000000600052601160045260246000fd5b6000610894826103f8565b91507fffffffffffffffffffffffffffffffffffffffffffffffffffffffffffffffff82036108c6576108c561085a565b5b60018201905091905056fea2646970667358221220aee7e8d72d7c6516d0e5e125326179cd6abe32e66bd0fe81c9142c90803f24ea64736f6c634300080d0033",
  "immutableReferences": {},
  "source": "// SPDX-License-Identifier: GPL-3.0\npragma solidity ^0.8.0;\n\nimport \"@openzeppelin/contracts/token/ERC777/IERC777.sol\";\n\n\n/**\n * @title BulkSendOperator\n *\n *        An ERC777 token operator contract that provides a number of bulk send\n *        functions\n *\n */\ncontract BulkSendOperator {\n    /**\n     * Send a given amount of tokens to multiple recipients\n     * @param _token the address of the token contract\n     * @param _recipients the list of recipents\n     * @param _amount the amount of tokens to send to each recipient\n     * @param _data the data to attach to each send\n     */\n    function send(IERC777 _token, address[] memory _recipients, uint256 _amount, bytes memory _data) public {\n        for (uint256 i = 0; i < _recipients.length; i++) {\n            _token.operatorSend(msg.sender, _recipients[i], _amount, _data, \"\");\n        }\n    }\n\n    /**\n     * Send individual amounts of tokens to multiple recipients\n     * @param _token the address of the token contract\n     * @param _recipients the list of recipents\n     * @param _amounts the amount of tokens to send to each recipient\n     * @param _data the data to attach to each send\n     */\n    function sendAmounts(IERC777 _token, address[] memory _recipients, uint256[] memory _amounts, bytes memory _data) public {\n        for (uint256 i = 0; i < _recipients.length; i++) {\n            _token.operatorSend(msg.sender, _recipients[i], _amounts[i], _data, \"\");\n        }\n    }\n}",
  "sourcePath": "/home/asem/blockchain_training/ERC777-AirDrop/contracts/BulkSendOperator.sol",
  "compiler": {
    "name": "solc",
    "version": "0.8.13+commit.abaa5c0e.Emscripten.clang"
  },
  "schemaVersion": "3.4.7",
  "updatedAt": "2022-06-08T03:12:41.076Z",
  "networkType": "ethereum",
  "devdoc": {
    "kind": "dev",
    "methods": {
      "send(address,address[],uint256,bytes)": {
        "params": {
          "_amount": "the amount of tokens to send to each recipient",
          "_data": "the data to attach to each send",
          "_recipients": "the list of recipents",
          "_token": "the address of the token contract"
        }
      },
      "sendAmounts(address,address[],uint256[],bytes)": {
        "params": {
          "_amounts": "the amount of tokens to send to each recipient",
          "_data": "the data to attach to each send",
          "_recipients": "the list of recipents",
          "_token": "the address of the token contract"
        }
      }
    },
    "title": "BulkSendOperator        An ERC777 token operator contract that provides a number of bulk send        functions",
    "version": 1
  },
  "userdoc": {
    "kind": "user",
    "methods": {
      "send(address,address[],uint256,bytes)": {
        "notice": "Send a given amount of tokens to multiple recipients"
      },
      "sendAmounts(address,address[],uint256[],bytes)": {
        "notice": "Send individual amounts of tokens to multiple recipients"
      }
    },
    "version": 1
  }
}