{
  "contractName": "EtherlessTransfer",
  "abi": [
    {
      "inputs": [
        {
          "internalType": "contract IERC777",
          "name": "_token",
          "type": "address"
        },
        {
          "internalType": "address",
          "name": "_holder",
          "type": "address"
        },
        {
          "internalType": "address",
          "name": "_recipient",
          "type": "address"
        },
        {
          "internalType": "uint256",
          "name": "_amount",
          "type": "uint256"
        },
        {
          "internalType": "bytes",
          "name": "_data",
          "type": "bytes"
        },
        {
          "internalType": "uint256",
          "name": "_nonce",
          "type": "uint256"
        },
        {
          "internalType": "bytes",
          "name": "_signature",
          "type": "bytes"
        }
      ],
      "name": "send",
      "outputs": [],
      "stateMutability": "nonpayable",
      "type": "function"
    },
    {
      "inputs": [
        {
          "internalType": "contract IERC777",
          "name": "_token",
          "type": "address"
        },
        {
          "internalType": "address",
          "name": "_holder",
          "type": "address"
        },
        {
          "internalType": "address",
          "name": "_recipient",
          "type": "address"
        },
        {
          "internalType": "uint256",
          "name": "_amount",
          "type": "uint256"
        },
        {
          "internalType": "bytes",
          "name": "_data",
          "type": "bytes"
        },
        {
          "internalType": "uint256",
          "name": "_nonce",
          "type": "uint256"
        }
      ],
      "name": "hashForSend",
      "outputs": [
        {
          "internalType": "bytes32",
          "name": "",
          "type": "bytes32"
        }
      ],
      "stateMutability": "pure",
      "type": "function",
      "constant": true
    }
  ],
  "bytecode": "0x608060405234801561001057600080fd5b50610e70806100206000396000f3fe608060405234801561001057600080fd5b50600436106100365760003560e01c806394345e241461003b578063f31a17fe1461006b575b600080fd5b610055600480360381019061005091906106a3565b610087565b6040516100629190610765565b60405180910390f35b61008560048036038101906100809190610780565b6100c6565b005b60008686868686866040516020016100a4969594939291906109a4565b6040516020818303038152906040528051906020012090509695505050505050565b6100d58787878787878761014f565b8673ffffffffffffffffffffffffffffffffffffffff166362ad1b83878787876040518563ffffffff1660e01b81526004016101149493929190610a9e565b600060405180830381600087803b15801561012e57600080fd5b505af1158015610142573d6000803e3d6000fd5b5050505050505050505050565b6041815114610193576040517f08c379a000000000000000000000000000000000000000000000000000000000815260040161018a90610b5a565b60405180910390fd5b60006101a3888888888888610087565b905060008082815260200190815260200160002060009054906101000a900460ff1615610205576040517f08c379a00000000000000000000000000000000000000000000000000000000081526004016101fc90610bc6565b60405180910390fd5b60006102118284610326565b9050600073ffffffffffffffffffffffffffffffffffffffff168173ffffffffffffffffffffffffffffffffffffffff1603610282576040517f08c379a000000000000000000000000000000000000000000000000000000000815260040161027990610c32565b60405180910390fd5b8773ffffffffffffffffffffffffffffffffffffffff168173ffffffffffffffffffffffffffffffffffffffff16146102f0576040517f08c379a00000000000000000000000000000000000000000000000000000000081526004016102e790610c9e565b60405180910390fd5b600160008084815260200190815260200160002060006101000a81548160ff021916908315150217905550505050505050505050565b600080600080602085015192506040850151915060ff6041860151169050601b8160ff16101561036057601b8161035d9190610cfa565b90505b601b8160ff1614806103755750601c8160ff16145b6103b4576040517f08c379a00000000000000000000000000000000000000000000000000000000081526004016103ab90610d7d565b60405180910390fd5b60006040518060400160405280601c81526020017f19457468657265756d205369676e6564204d6573736167653a0a333200000000815250905060008188604051602001610403929190610dbe565b6040516020818303038152906040528051906020012090506001818487876040516000815260200160405260405161043e9493929190610df5565b6020604051602081039080840390855afa158015610460573d6000803e3d6000fd5b505050602060405103519550505050505092915050565b6000604051905090565b600080fd5b600080fd5b600073ffffffffffffffffffffffffffffffffffffffff82169050919050565b60006104b68261048b565b9050919050565b60006104c8826104ab565b9050919050565b6104d8816104bd565b81146104e357600080fd5b50565b6000813590506104f5816104cf565b92915050565b610504816104ab565b811461050f57600080fd5b50565b600081359050610521816104fb565b92915050565b6000819050919050565b61053a81610527565b811461054557600080fd5b50565b60008135905061055781610531565b92915050565b600080fd5b600080fd5b6000601f19601f8301169050919050565b7f4e487b7100000000000000000000000000000000000000000000000000000000600052604160045260246000fd5b6105b082610567565b810181811067ffffffffffffffff821117156105cf576105ce610578565b5b80604052505050565b60006105e2610477565b90506105ee82826105a7565b919050565b600067ffffffffffffffff82111561060e5761060d610578565b5b61061782610567565b9050602081019050919050565b82818337600083830152505050565b6000610646610641846105f3565b6105d8565b90508281526020810184848401111561066257610661610562565b5b61066d848285610624565b509392505050565b600082601f83011261068a5761068961055d565b5b813561069a848260208601610633565b91505092915050565b60008060008060008060c087890312156106c0576106bf610481565b5b60006106ce89828a016104e6565b96505060206106df89828a01610512565b95505060406106f089828a01610512565b945050606061070189828a01610548565b935050608087013567ffffffffffffffff81111561072257610721610486565b5b61072e89828a01610675565b92505060a061073f89828a01610548565b9150509295509295509295565b6000819050919050565b61075f8161074c565b82525050565b600060208201905061077a6000830184610756565b92915050565b600080600080600080600060e0888a03121561079f5761079e610481565b5b60006107ad8a828b016104e6565b97505060206107be8a828b01610512565b96505060406107cf8a828b01610512565b95505060606107e08a828b01610548565b945050608088013567ffffffffffffffff81111561080157610800610486565b5b61080d8a828b01610675565b93505060a061081e8a828b01610548565b92505060c088013567ffffffffffffffff81111561083f5761083e610486565b5b61084b8a828b01610675565b91505092959891949750929550565b6000819050919050565b600061087f61087a6108758461048b565b61085a565b61048b565b9050919050565b600061089182610864565b9050919050565b60006108a382610886565b9050919050565b60008160601b9050919050565b60006108c2826108aa565b9050919050565b60006108d4826108b7565b9050919050565b6108ec6108e782610898565b6108c9565b82525050565b6109036108fe826104ab565b6108c9565b82525050565b6000819050919050565b61092461091f82610527565b610909565b82525050565b600081519050919050565b600081905092915050565b60005b8381101561095e578082015181840152602081019050610943565b8381111561096d576000848401525b50505050565b600061097e8261092a565b6109888185610935565b9350610998818560208601610940565b80840191505092915050565b60006109b082896108db565b6014820191506109c082886108f2565b6014820191506109d082876108f2565b6014820191506109e08286610913565b6020820191506109f08285610973565b91506109fc8284610913565b602082019150819050979650505050505050565b610a19816104ab565b82525050565b610a2881610527565b82525050565b600082825260208201905092915050565b6000610a4a8261092a565b610a548185610a2e565b9350610a64818560208601610940565b610a6d81610567565b840191505092915050565b50565b6000610a88600083610a2e565b9150610a9382610a78565b600082019050919050565b600060a082019050610ab36000830187610a10565b610ac06020830186610a10565b610acd6040830185610a1f565b8181036060830152610adf8184610a3f565b90508181036080830152610af281610a7b565b905095945050505050565b600082825260208201905092915050565b7f6c656e677468206f66207369676e617475726520696e636f7272656374000000600082015250565b6000610b44601d83610afd565b9150610b4f82610b0e565b602082019050919050565b60006020820190508181036000830152610b7381610b37565b9050919050565b7f746f6b656e7320616c72656164792073656e7400000000000000000000000000600082015250565b6000610bb0601383610afd565b9150610bbb82610b7a565b602082019050919050565b60006020820190508181036000830152610bdf81610ba3565b9050919050565b7f7369676e61746f727920697320696e76616c6964000000000000000000000000600082015250565b6000610c1c601483610afd565b9150610c2782610be6565b602082019050919050565b60006020820190508181036000830152610c4b81610c0f565b9050919050565b7f7369676e61746f7279206973206e6f742074686520686f6c6465720000000000600082015250565b6000610c88601b83610afd565b9150610c9382610c52565b602082019050919050565b60006020820190508181036000830152610cb781610c7b565b9050919050565b600060ff82169050919050565b7f4e487b7100000000000000000000000000000000000000000000000000000000600052601160045260246000fd5b6000610d0582610cbe565b9150610d1083610cbe565b92508260ff03821115610d2657610d25610ccb565b5b828201905092915050565b7f7369676e617475726520697320696e76616c6964000000000000000000000000600082015250565b6000610d67601483610afd565b9150610d7282610d31565b602082019050919050565b60006020820190508181036000830152610d9681610d5a565b9050919050565b6000819050919050565b610db8610db38261074c565b610d9d565b82525050565b6000610dca8285610973565b9150610dd68284610da7565b6020820191508190509392505050565b610def81610cbe565b82525050565b6000608082019050610e0a6000830187610756565b610e176020830186610de6565b610e246040830185610756565b610e316060830184610756565b9594505050505056fea2646970667358221220a9f55cec76f24b4d3ed24df0367c707a2e130adb13b77eb325c567486962bbdb64736f6c634300080d0033",
  "immutableReferences": {},
  "source": "// SPDX-License-Identifier: GPL-3.0\npragma solidity ^0.8.0;\n\nimport \"@openzeppelin/contracts/token/ERC777/IERC777.sol\";\n\ncontract EtherlessTransfer {\n    // Mapping is hash=>used, to stop replays\n    mapping(bytes32=>bool) private usedHashes;\n\n    /**\n     * send tokens from one account to another using the signature as the authority.\n     * The signature is created by the holder and signs a hash of the\n     * (_token, _holder, _recipient, _amount, _nonce) tuple as created by hashForSend().\n     *\n     * @param _token the address of the token contract\n     * @param _holder the holder of the tokens\n     * @param _recipient the recipient of the tokens\n     * @param _amount the number of tokens to send\n     * @param _data the data field for the operatorSend operation, supplied by the authority\n     * @param _nonce a unique field for a given (_token, _holder, _recipient, _amount, _nonce) supplied by the authority\n     * @param _signature the signature supplied by the authority\n     */\n    function send(IERC777 _token, address _holder, address _recipient, uint256 _amount, bytes memory _data, uint256 _nonce, bytes memory _signature) public {\n        preSend(_token, _holder, _recipient, _amount, _data, _nonce, _signature);\n        _token.operatorSend(_holder, _recipient, _amount, _data, \"\");\n    }\n\n    function preSend(IERC777 _token, address _holder, address _recipient, uint256 _amount, bytes memory _data, uint256 _nonce, bytes memory _signature) internal {\n        // Ensure that signature contains the correct number of bytes\n        require(_signature.length == 65, \"length of signature incorrect\");\n\n        bytes32 hash = hashForSend(_token, _holder, _recipient, _amount, _data, _nonce);\n        require(!usedHashes[hash], \"tokens already sent\");\n\n        address signatory = signer(hash, _signature);\n        require(signatory != address(0), \"signatory is invalid\");\n        require(signatory == _holder, \"signatory is not the holder\");\n        usedHashes[hash] = true;\n    }\n\n    /**\n     * This generates the hash that is signed by the holder to authorise a send.\n     *\n     * @param _token the address of the token contract\n     * @param _holder the holder of the tokens\n     * @param _recipient the recipient of the tokens\n     * @param _amount the number of tokens to send\n     * @param _data the data field for the operatorSend operation, supplied by the authority\n     * @param _nonce a unique field for a given (_token, _holder, _recipient, _amount, _nonce) supplied by the authority\n     */\n    function hashForSend(IERC777 _token, address _holder, address _recipient, uint256 _amount, bytes memory _data, uint256 _nonce) public pure returns (bytes32) {\n        return keccak256(abi.encodePacked(_token, _holder, _recipient, _amount, _data, _nonce));\n    }\n\n    /**\n     * This obtains the signer of a hash given its signature.\n     * Note that a returned address of 0 means that the signature is invalid,\n     * and should be treated as such.\n     */\n    function signer(bytes32 _hash, bytes memory _signature) private pure returns (address) {\n        bytes32 r;\n        bytes32 s;\n        uint8 v;\n\n        assembly {\n            r := mload(add(_signature, 32))\n            s := mload(add(_signature, 64))\n            v := and(mload(add(_signature, 65)), 255)\n        }\n\n        if (v < 27) {\n            v += 27;\n        }\n\n        require(v == 27 || v == 28, \"signature is invalid\");\n\n        bytes memory prefix = \"\\x19Ethereum Signed Message:\\n32\";\n        bytes32 prefixedHash = keccak256(abi.encodePacked(prefix, _hash));\n        return ecrecover(prefixedHash, v, r, s);\n    }\n}\n",
  "sourcePath": "/home/asem/Desktop/Internship/ERC777/contracts/EtherlessTransfer.sol",
  "compiler": {
    "name": "solc",
    "version": "0.8.13+commit.abaa5c0e.Emscripten.clang"
  },
  "schemaVersion": "3.4.10",
  "updatedAt": "2022-11-08T18:16:51.171Z",
  "networkType": "ethereum",
  "devdoc": {
    "kind": "dev",
    "methods": {
      "hashForSend(address,address,address,uint256,bytes,uint256)": {
        "params": {
          "_amount": "the number of tokens to send",
          "_data": "the data field for the operatorSend operation, supplied by the authority",
          "_holder": "the holder of the tokens",
          "_nonce": "a unique field for a given (_token, _holder, _recipient, _amount, _nonce) supplied by the authority",
          "_recipient": "the recipient of the tokens",
          "_token": "the address of the token contract"
        }
      },
      "send(address,address,address,uint256,bytes,uint256,bytes)": {
        "params": {
          "_amount": "the number of tokens to send",
          "_data": "the data field for the operatorSend operation, supplied by the authority",
          "_holder": "the holder of the tokens",
          "_nonce": "a unique field for a given (_token, _holder, _recipient, _amount, _nonce) supplied by the authority",
          "_recipient": "the recipient of the tokens",
          "_signature": "the signature supplied by the authority",
          "_token": "the address of the token contract"
        }
      }
    },
    "version": 1
  },
  "userdoc": {
    "kind": "user",
    "methods": {
      "hashForSend(address,address,address,uint256,bytes,uint256)": {
        "notice": "This generates the hash that is signed by the holder to authorise a send."
      },
      "send(address,address,address,uint256,bytes,uint256,bytes)": {
        "notice": "send tokens from one account to another using the signature as the authority. The signature is created by the holder and signs a hash of the (_token, _holder, _recipient, _amount, _nonce) tuple as created by hashForSend()."
      }
    },
    "version": 1
  }
}