{
  "contractName": "StaticSale",
  "abi": [
    {
      "anonymous": false,
      "inputs": [
        {
          "indexed": false,
          "internalType": "address",
          "name": "token",
          "type": "address"
        },
        {
          "indexed": false,
          "internalType": "address",
          "name": "holder",
          "type": "address"
        },
        {
          "indexed": false,
          "internalType": "uint256",
          "name": "pricePerToken",
          "type": "uint256"
        }
      ],
      "name": "PricePerToken",
      "type": "event"
    },
    {
      "inputs": [
        {
          "internalType": "contract IERC777",
          "name": "_token",
          "type": "address"
        },
        {
          "internalType": "uint256",
          "name": "_pricePerToken",
          "type": "uint256"
        }
      ],
      "name": "setPricePerToken",
      "outputs": [],
      "stateMutability": "nonpayable",
      "type": "function"
    },
    {
      "inputs": [
        {
          "internalType": "contract IERC777",
          "name": "_token",
          "type": "address"
        },
        {
          "internalType": "address",
          "name": "_holder",
          "type": "address"
        }
      ],
      "name": "getPricePerToken",
      "outputs": [
        {
          "internalType": "uint256",
          "name": "",
          "type": "uint256"
        }
      ],
      "stateMutability": "view",
      "type": "function",
      "constant": true
    },
    {
      "inputs": [
        {
          "internalType": "contract IERC777",
          "name": "_token",
          "type": "address"
        },
        {
          "internalType": "address payable",
          "name": "_holder",
          "type": "address"
        }
      ],
      "name": "send",
      "outputs": [],
      "stateMutability": "payable",
      "type": "function",
      "payable": true
    }
  ],
  "bytecode": "0x608060405234801561001057600080fd5b50610c29806100206000396000f3fe6080604052600436106100345760003560e01c80632f3c52fa14610039578063b6d9d45114610062578063f9fcfd7d1461007e575b600080fd5b34801561004557600080fd5b50610060600480360381019061005b91906106c0565b6100bb565b005b61007c6004803603810190610077919061073e565b61017a565b005b34801561008a57600080fd5b506100a560048036038101906100a091906107aa565b610205565b6040516100b291906107f9565b60405180910390f35b806000808473ffffffffffffffffffffffffffffffffffffffff1673ffffffffffffffffffffffffffffffffffffffff16815260200190815260200160002060003373ffffffffffffffffffffffffffffffffffffffff1673ffffffffffffffffffffffffffffffffffffffff168152602001908152602001600020819055507ff49122665257e3aefb3416c9bbcb019d286d2149ef98821afc113779eabe65ec82338360405161016e93929190610823565b60405180910390a15050565b6000610186838361028b565b90508273ffffffffffffffffffffffffffffffffffffffff166362ad1b838333846040518463ffffffff1660e01b81526004016101c5939291906108f0565b600060405180830381600087803b1580156101df57600080fd5b505af11580156101f3573d6000803e3d6000fd5b505050506102008261059f565b505050565b60008060008473ffffffffffffffffffffffffffffffffffffffff1673ffffffffffffffffffffffffffffffffffffffff16815260200190815260200160002060008373ffffffffffffffffffffffffffffffffffffffff1673ffffffffffffffffffffffffffffffffffffffff16815260200190815260200160002054905092915050565b6000806000808573ffffffffffffffffffffffffffffffffffffffff1673ffffffffffffffffffffffffffffffffffffffff16815260200190815260200160002060008473ffffffffffffffffffffffffffffffffffffffff1673ffffffffffffffffffffffffffffffffffffffff168152602001908152602001600020540361034a576040517f08c379a0000000000000000000000000000000000000000000000000000000008152600401610341906109aa565b60405180910390fd5b60006103f46000808673ffffffffffffffffffffffffffffffffffffffff1673ffffffffffffffffffffffffffffffffffffffff16815260200190815260200160002060008573ffffffffffffffffffffffffffffffffffffffff1673ffffffffffffffffffffffffffffffffffffffff168152602001908152602001600020546103e6670de0b6b3a7640000346105e990919063ffffffff16565b6105ff90919063ffffffff16565b90508373ffffffffffffffffffffffffffffffffffffffff1663556f0dc76040518163ffffffff1660e01b8152600401602060405180830381865afa158015610441573d6000803e3d6000fd5b505050506040513d601f19601f8201168201806040525081019061046591906109df565b81116104a6576040517f08c379a000000000000000000000000000000000000000000000000000000000815260040161049d90610a58565b60405180910390fd5b6000610550670de0b6b3a76400006105426000808973ffffffffffffffffffffffffffffffffffffffff1673ffffffffffffffffffffffffffffffffffffffff16815260200190815260200160002060008873ffffffffffffffffffffffffffffffffffffffff1673ffffffffffffffffffffffffffffffffffffffff16815260200190815260200160002054856105e990919063ffffffff16565b6105ff90919063ffffffff16565b9050348114610594576040517f08c379a000000000000000000000000000000000000000000000000000000000815260040161058b90610aea565b60405180910390fd5b819250505092915050565b8073ffffffffffffffffffffffffffffffffffffffff166108fc349081150290604051600060405180830381858888f193505050501580156105e5573d6000803e3d6000fd5b5050565b600081836105f79190610b39565b905092915050565b6000818361060d9190610bc2565b905092915050565b600080fd5b600073ffffffffffffffffffffffffffffffffffffffff82169050919050565b60006106458261061a565b9050919050565b60006106578261063a565b9050919050565b6106678161064c565b811461067257600080fd5b50565b6000813590506106848161065e565b92915050565b6000819050919050565b61069d8161068a565b81146106a857600080fd5b50565b6000813590506106ba81610694565b92915050565b600080604083850312156106d7576106d6610615565b5b60006106e585828601610675565b92505060206106f6858286016106ab565b9150509250929050565b600061070b8261061a565b9050919050565b61071b81610700565b811461072657600080fd5b50565b60008135905061073881610712565b92915050565b6000806040838503121561075557610754610615565b5b600061076385828601610675565b925050602061077485828601610729565b9150509250929050565b6107878161063a565b811461079257600080fd5b50565b6000813590506107a48161077e565b92915050565b600080604083850312156107c1576107c0610615565b5b60006107cf85828601610675565b92505060206107e085828601610795565b9150509250929050565b6107f38161068a565b82525050565b600060208201905061080e60008301846107ea565b92915050565b61081d8161063a565b82525050565b60006060820190506108386000830186610814565b6108456020830185610814565b61085260408301846107ea565b949350505050565b6000819050919050565b600061087f61087a6108758461061a565b61085a565b61061a565b9050919050565b600061089182610864565b9050919050565b60006108a382610886565b9050919050565b6108b381610898565b82525050565b600082825260208201905092915050565b50565b60006108da6000836108b9565b91506108e5826108ca565b600082019050919050565b600060a08201905061090560008301866108aa565b6109126020830185610814565b61091f60408301846107ea565b8181036060830152610930816108cd565b90508181036080830152610943816108cd565b9050949350505050565b600082825260208201905092915050565b7f6e6f7420666f722073616c650000000000000000000000000000000000000000600082015250565b6000610994600c8361094d565b915061099f8261095e565b602082019050919050565b600060208201905081810360008301526109c381610987565b9050919050565b6000815190506109d981610694565b92915050565b6000602082840312156109f5576109f4610615565b5b6000610a03848285016109ca565b91505092915050565b7f6e6f7420656e6f75676820657468657220706169640000000000000000000000600082015250565b6000610a4260158361094d565b9150610a4d82610a0c565b602082019050919050565b60006020820190508181036000830152610a7181610a35565b9050919050565b7f6e6f6e2d696e7465676572206e756d626572206f6620746f6b656e732070757260008201527f6368617365640000000000000000000000000000000000000000000000000000602082015250565b6000610ad460268361094d565b9150610adf82610a78565b604082019050919050565b60006020820190508181036000830152610b0381610ac7565b9050919050565b7f4e487b7100000000000000000000000000000000000000000000000000000000600052601160045260246000fd5b6000610b448261068a565b9150610b4f8361068a565b9250817fffffffffffffffffffffffffffffffffffffffffffffffffffffffffffffffff0483118215151615610b8857610b87610b0a565b5b828202905092915050565b7f4e487b7100000000000000000000000000000000000000000000000000000000600052601260045260246000fd5b6000610bcd8261068a565b9150610bd88361068a565b925082610be857610be7610b93565b5b82820490509291505056fea26469706673582212205cc6cba336532db1678d82eb076fc31ed9df4bec7b952995656fffcfccbd978264736f6c634300080d0033",
  "immutableReferences": {},
  "source": "// SPDX-License-Identifier: GPL-3.0\npragma solidity ^0.8.0;\n\nimport \"@openzeppelin/contracts/token/ERC777/IERC777.sol\";\nimport \"@openzeppelin/contracts/utils/math/SafeMath.sol\";\n\n/**\n * @title FixedPriceSeller\n *\n *        An ERC777 token operator contract that sells tokens at a fixed price.\n *\n */\n\ncontract StaticSale {\n\n    using SafeMath for uint256;\n\n    // Mapping is token=>holder=>price per token\n    mapping(address => mapping(address => uint256)) pricePerToken;\n\n\n    event PricePerToken(address token, address holder, uint256 pricePerToken);\n\n    /**\n     * Set the price for each token.  The price is in Wei, so if for example\n     * the price is 1 Ether for 1 token then _pricePerToken would be 10^18.\n     */\n    function setPricePerToken(IERC777 _token, uint256 _pricePerToken) public {\n        pricePerToken[address(_token)][msg.sender] = _pricePerToken;\n        emit PricePerToken(address(_token), msg.sender, _pricePerToken);\n    }\n\n    /**\n     * Get the price for each token.  The price is in Wei, so if for example\n     * the price is 1 Ether for 1 token this would return 10^18.\n     */\n    function getPricePerToken(IERC777 _token, address _holder) public view returns (uint256) {\n        return pricePerToken[address(_token)][_holder];\n    }\n\n    /**\n     * Send tokens from a holder at their price\n     */\n    function send(IERC777 _token, address payable _holder) public payable {\n        uint256 amount = preSend(_token, _holder);\n        _token.operatorSend(_holder, msg.sender, amount, \"\", \"\");\n        postSend(_holder);\n    }\n\n    /**\n     * Checks and state update to carry out prior to sending tokens\n     */\n    function preSend(IERC777 _token, address _holder) internal view returns (uint256) {\n        require(pricePerToken[address(_token)][_holder] != 0, \"not for sale\");\n        uint256 amount = msg.value.mul(1000000000000000000).div(pricePerToken[address(_token)][_holder]);\n        require(amount > _token.granularity(), \"not enough ether paid\");\n        uint256 value = amount.mul(pricePerToken[address(_token)][_holder]).div(1000000000000000000);\n        require(value == msg.value, \"non-integer number of tokens purchased\");\n        return amount;\n    }\n\n    /**\n     * State update to carry out after sending tokens\n     */\n    function postSend(address payable _holder) internal {\n        _holder.transfer(msg.value);\n    }\n}\n",
  "sourcePath": "/home/asem/Desktop/Internship/ERC777/contracts/StaticSale.sol",
  "compiler": {
    "name": "solc",
    "version": "0.8.13+commit.abaa5c0e.Emscripten.clang"
  },
  "schemaVersion": "3.4.10",
  "updatedAt": "2022-11-08T18:16:51.156Z",
  "networkType": "ethereum",
  "devdoc": {
    "kind": "dev",
    "methods": {},
    "title": "FixedPriceSeller        An ERC777 token operator contract that sells tokens at a fixed price.",
    "version": 1
  },
  "userdoc": {
    "kind": "user",
    "methods": {
      "getPricePerToken(address,address)": {
        "notice": "Get the price for each token.  The price is in Wei, so if for example the price is 1 Ether for 1 token this would return 10^18."
      },
      "send(address,address)": {
        "notice": "Send tokens from a holder at their price"
      },
      "setPricePerToken(address,uint256)": {
        "notice": "Set the price for each token.  The price is in Wei, so if for example the price is 1 Ether for 1 token then _pricePerToken would be 10^18."
      }
    },
    "version": 1
  }
}