{
  "contractName": "StaticSale",
  "abi": [
    {
      "anonymous": false,
      "inputs": [
        {
          "indexed": false,
          "internalType": "address",
          "name": "token",
          "type": "address"
        },
        {
          "indexed": false,
          "internalType": "address",
          "name": "holder",
          "type": "address"
        },
        {
          "indexed": false,
          "internalType": "uint256",
          "name": "pricePerToken",
          "type": "uint256"
        }
      ],
      "name": "PricePerToken",
      "type": "event"
    },
    {
      "inputs": [
        {
          "internalType": "contract IERC777",
          "name": "_token",
          "type": "address"
        },
        {
          "internalType": "uint256",
          "name": "_pricePerToken",
          "type": "uint256"
        }
      ],
      "name": "setPricePerToken",
      "outputs": [],
      "stateMutability": "nonpayable",
      "type": "function"
    },
    {
      "inputs": [
        {
          "internalType": "contract IERC777",
          "name": "_token",
          "type": "address"
        },
        {
          "internalType": "address",
          "name": "_holder",
          "type": "address"
        }
      ],
      "name": "getPricePerToken",
      "outputs": [
        {
          "internalType": "uint256",
          "name": "",
          "type": "uint256"
        }
      ],
      "stateMutability": "view",
      "type": "function",
      "constant": true
    },
    {
      "inputs": [
        {
          "internalType": "contract IERC777",
          "name": "_token",
          "type": "address"
        },
        {
          "internalType": "address payable",
          "name": "_holder",
          "type": "address"
        }
      ],
      "name": "send",
      "outputs": [],
      "stateMutability": "payable",
      "type": "function",
      "payable": true
    }
  ],
  "bytecode": "0x608060405234801561001057600080fd5b50610c1b806100206000396000f3fe6080604052600436106100345760003560e01c80632f3c52fa14610039578063b6d9d45114610062578063f9fcfd7d1461007e575b600080fd5b34801561004557600080fd5b50610060600480360381019061005b91906106b2565b6100bb565b005b61007c60048036038101906100779190610730565b61017a565b005b34801561008a57600080fd5b506100a560048036038101906100a0919061079c565b610205565b6040516100b291906107eb565b60405180910390f35b806000808473ffffffffffffffffffffffffffffffffffffffff1673ffffffffffffffffffffffffffffffffffffffff16815260200190815260200160002060003373ffffffffffffffffffffffffffffffffffffffff1673ffffffffffffffffffffffffffffffffffffffff168152602001908152602001600020819055507ff49122665257e3aefb3416c9bbcb019d286d2149ef98821afc113779eabe65ec82338360405161016e93929190610815565b60405180910390a15050565b6000610186838361028b565b90508273ffffffffffffffffffffffffffffffffffffffff166362ad1b838333846040518463ffffffff1660e01b81526004016101c5939291906108e2565b600060405180830381600087803b1580156101df57600080fd5b505af11580156101f3573d6000803e3d6000fd5b5050505061020082610591565b505050565b60008060008473ffffffffffffffffffffffffffffffffffffffff1673ffffffffffffffffffffffffffffffffffffffff16815260200190815260200160002060008373ffffffffffffffffffffffffffffffffffffffff1673ffffffffffffffffffffffffffffffffffffffff16815260200190815260200160002054905092915050565b6000806000808573ffffffffffffffffffffffffffffffffffffffff1673ffffffffffffffffffffffffffffffffffffffff16815260200190815260200160002060008473ffffffffffffffffffffffffffffffffffffffff1673ffffffffffffffffffffffffffffffffffffffff168152602001908152602001600020540361034a576040517f08c379a00000000000000000000000000000000000000000000000000000000081526004016103419061099c565b60405180910390fd5b60006103ed6000808673ffffffffffffffffffffffffffffffffffffffff1673ffffffffffffffffffffffffffffffffffffffff16815260200190815260200160002060008573ffffffffffffffffffffffffffffffffffffffff1673ffffffffffffffffffffffffffffffffffffffff168152602001908152602001600020546103df6001346105db90919063ffffffff16565b6105f190919063ffffffff16565b90508373ffffffffffffffffffffffffffffffffffffffff1663556f0dc76040518163ffffffff1660e01b8152600401602060405180830381865afa15801561043a573d6000803e3d6000fd5b505050506040513d601f19601f8201168201806040525081019061045e91906109d1565b811161049f576040517f08c379a000000000000000000000000000000000000000000000000000000000815260040161049690610a4a565b60405180910390fd5b600061054260016105346000808973ffffffffffffffffffffffffffffffffffffffff1673ffffffffffffffffffffffffffffffffffffffff16815260200190815260200160002060008873ffffffffffffffffffffffffffffffffffffffff1673ffffffffffffffffffffffffffffffffffffffff16815260200190815260200160002054856105db90919063ffffffff16565b6105f190919063ffffffff16565b9050348114610586576040517f08c379a000000000000000000000000000000000000000000000000000000000815260040161057d90610adc565b60405180910390fd5b819250505092915050565b8073ffffffffffffffffffffffffffffffffffffffff166108fc349081150290604051600060405180830381858888f193505050501580156105d7573d6000803e3d6000fd5b5050565b600081836105e99190610b2b565b905092915050565b600081836105ff9190610bb4565b905092915050565b600080fd5b600073ffffffffffffffffffffffffffffffffffffffff82169050919050565b60006106378261060c565b9050919050565b60006106498261062c565b9050919050565b6106598161063e565b811461066457600080fd5b50565b60008135905061067681610650565b92915050565b6000819050919050565b61068f8161067c565b811461069a57600080fd5b50565b6000813590506106ac81610686565b92915050565b600080604083850312156106c9576106c8610607565b5b60006106d785828601610667565b92505060206106e88582860161069d565b9150509250929050565b60006106fd8261060c565b9050919050565b61070d816106f2565b811461071857600080fd5b50565b60008135905061072a81610704565b92915050565b6000806040838503121561074757610746610607565b5b600061075585828601610667565b92505060206107668582860161071b565b9150509250929050565b6107798161062c565b811461078457600080fd5b50565b60008135905061079681610770565b92915050565b600080604083850312156107b3576107b2610607565b5b60006107c185828601610667565b92505060206107d285828601610787565b9150509250929050565b6107e58161067c565b82525050565b600060208201905061080060008301846107dc565b92915050565b61080f8161062c565b82525050565b600060608201905061082a6000830186610806565b6108376020830185610806565b61084460408301846107dc565b949350505050565b6000819050919050565b600061087161086c6108678461060c565b61084c565b61060c565b9050919050565b600061088382610856565b9050919050565b600061089582610878565b9050919050565b6108a58161088a565b82525050565b600082825260208201905092915050565b50565b60006108cc6000836108ab565b91506108d7826108bc565b600082019050919050565b600060a0820190506108f7600083018661089c565b6109046020830185610806565b61091160408301846107dc565b8181036060830152610922816108bf565b90508181036080830152610935816108bf565b9050949350505050565b600082825260208201905092915050565b7f6e6f7420666f722073616c650000000000000000000000000000000000000000600082015250565b6000610986600c8361093f565b915061099182610950565b602082019050919050565b600060208201905081810360008301526109b581610979565b9050919050565b6000815190506109cb81610686565b92915050565b6000602082840312156109e7576109e6610607565b5b60006109f5848285016109bc565b91505092915050565b7f6e6f7420656e6f75676820657468657220706169640000000000000000000000600082015250565b6000610a3460158361093f565b9150610a3f826109fe565b602082019050919050565b60006020820190508181036000830152610a6381610a27565b9050919050565b7f6e6f6e2d696e7465676572206e756d626572206f6620746f6b656e732070757260008201527f6368617365640000000000000000000000000000000000000000000000000000602082015250565b6000610ac660268361093f565b9150610ad182610a6a565b604082019050919050565b60006020820190508181036000830152610af581610ab9565b9050919050565b7f4e487b7100000000000000000000000000000000000000000000000000000000600052601160045260246000fd5b6000610b368261067c565b9150610b418361067c565b9250817fffffffffffffffffffffffffffffffffffffffffffffffffffffffffffffffff0483118215151615610b7a57610b79610afc565b5b828202905092915050565b7f4e487b7100000000000000000000000000000000000000000000000000000000600052601260045260246000fd5b6000610bbf8261067c565b9150610bca8361067c565b925082610bda57610bd9610b85565b5b82820490509291505056fea264697066735822122029080df167d6a0403fa6fe729e59fd12ffaa51996bfb630dbb26335fbc08ea1b64736f6c634300080d0033",
  "immutableReferences": {},
  "source": "// SPDX-License-Identifier: GPL-3.0\npragma solidity ^0.8.0;\n\nimport \"@openzeppelin/contracts/token/ERC777/IERC777.sol\";\nimport \"@openzeppelin/contracts/utils/math/SafeMath.sol\";\n\n/**\n * @title FixedPriceSeller\n *\n *        An ERC777 token operator contract that sells tokens at a fixed price.\n *\n */\n\ncontract StaticSale {\n\n    using SafeMath for uint256;\n\n    // Mapping is token=>holder=>price per token\n    mapping(address => mapping(address => uint256)) pricePerToken;\n\n\n    event PricePerToken(address token, address holder, uint256 pricePerToken);\n\n    /**\n     * Set the price for each token.  The price is in Wei, so if for example\n     * the price is 1 Ether for 1 token then _pricePerToken would be 10^18.\n     */\n    function setPricePerToken(IERC777 _token, uint256 _pricePerToken) public {\n        pricePerToken[address(_token)][msg.sender] = _pricePerToken;\n        emit PricePerToken(address(_token), msg.sender, _pricePerToken);\n    }\n\n    /**\n     * Get the price for each token.  The price is in Wei, so if for example\n     * the price is 1 Ether for 1 token this would return 10^18.\n     */\n    function getPricePerToken(IERC777 _token, address _holder) public view returns (uint256) {\n        return pricePerToken[address(_token)][_holder];\n    }\n\n    /**\n     * Send tokens from a holder at their price\n     */\n    function send(IERC777 _token, address payable _holder) public payable {\n        uint256 amount = preSend(_token, _holder);\n        _token.operatorSend(_holder, msg.sender, amount, \"\", \"\");\n        postSend(_holder);\n    }\n\n    /**\n     * Checks and state update to carry out prior to sending tokens\n     */\n    function preSend(IERC777 _token, address _holder) internal view returns (uint256) {\n        require(pricePerToken[address(_token)][_holder] != 0, \"not for sale\");\n        uint256 amount = msg.value.mul(1).div(pricePerToken[address(_token)][_holder]);\n        require(amount > _token.granularity(), \"not enough ether paid\");\n        uint256 value = amount.mul(pricePerToken[address(_token)][_holder]).div(1);\n        require(value == msg.value, \"non-integer number of tokens purchased\");\n        return amount;\n    }\n\n    /**\n     * State update to carry out after sending tokens\n     */\n    function postSend(address payable _holder) internal {\n        _holder.transfer(msg.value);\n    }\n}\n",
  "sourcePath": "/home/asem/blockchain_training/ERC777-AirDrop/contracts/StaticSale.sol",
  "compiler": {
    "name": "solc",
    "version": "0.8.13+commit.abaa5c0e.Emscripten.clang"
  },
  "schemaVersion": "3.4.7",
  "updatedAt": "2022-06-26T15:58:29.590Z",
  "networkType": "ethereum",
  "devdoc": {
    "kind": "dev",
    "methods": {},
    "title": "FixedPriceSeller        An ERC777 token operator contract that sells tokens at a fixed price.",
    "version": 1
  },
  "userdoc": {
    "kind": "user",
    "methods": {
      "getPricePerToken(address,address)": {
        "notice": "Get the price for each token.  The price is in Wei, so if for example the price is 1 Ether for 1 token this would return 10^18."
      },
      "send(address,address)": {
        "notice": "Send tokens from a holder at their price"
      },
      "setPricePerToken(address,uint256)": {
        "notice": "Set the price for each token.  The price is in Wei, so if for example the price is 1 Ether for 1 token then _pricePerToken would be 10^18."
      }
    },
    "version": 1
  }
}